:107000005FC0000078C0000076C0000074C00000BF
:1070100072C0000070C000006EC000006CC00000B4
:107020006AC0000068C000000EC5000064C0000017
:1070300062C0000060C000005EC000005CC00000D4
:107040005AC00000E6C0000056C0000054C0000056
:1070500052C0000050C000004EC000004CC00000F4
:107060004AC0000048C0000046C0000044C0000004
:1070700042C0000040C000003EC000003CC0000014
:107080003AC0000038C0000036C0000034C0000024
:1070900032C0000030C000002EC000002CC0000034
:1070A0002AC0000028C0000026C000008E3EA73E77
:1070B000533FA73E533FDF3E013F533F213F333F06
:1070C00011241FBECFEFDAE0DEBFCDBF11E0A0E09C
:1070D000B1E0E0E3FFE702C005900D92AC3AB107E2
:1070E000D9F721E0ACEAB1E001C01D92AC3BB20798
:1070F000E1F743D31BC784CF84E08093E9008091FC
:10710000E80085FD0DC08091E8008B778093E80052
:107110008091E80082FDF3CF8EB38111F9CF02C0D8
:107120008091F100089593E09093E9009091E80038
:1071300095FF03C08093F10008959091E8009E7739
:107140009093E8009091E80090FDF4CF9EB39111E8
:10715000F9CF089544E063E071E080EB71C3CF9311
:10716000DF9300D000D01F92CDB7DEB784E08983D3
:10717000809102018695869586958A831B821C8262
:107180008FEF8D8345E0BE016F5F7F4F80EB58D35B
:107190000F900F900F900F900F90DF91CF91089567
:1071A000F89410926F001092810010928500109256
:1071B000840081E085BF15BE0C940000089584B75B
:1071C000877F84BF0FB6F894A8958091600088618E
:1071D00080936000109260000FBE90E880E00FB6D0
:1071E000F89490936100809361000FBE81E085BFA9
:1071F00082E085BFE1E6F0E0908310821092890082
:107200009AEF9093880080936F0083E080938100D1
:1072100002C41F920F920FB60F9211242F938F93D7
:107220009F93EF93FF931092850010928400E0E00B
:10723000F0E085919491019649F08091AC01909194
:10724000AD0101969093AD018093AC01FF91EF9158
:107250009F918F912F910F900FBE0F901F901895B7
:1072600042E061EC82E06CD342E161E883E068D304
:1072700042E160E884E064C38091B401982F9F7775
:10728000913239F59091B501903291F0913209F532
:10729000813AF9F48091E800877F8093E80067E005
:1072A00070E087E091E080D48091E8008B770FC098
:1072B000813279F48091E800877F8093E80067E06D
:1072C00070E087E091E0C8D48091E8008E778093E9
:1072D000E80008954F925F926F927F928F929F92F3
:1072E000AF92BF92CF92DF92EF92FF920F931F93D4
:1072F000CF93DF9384E08093E9008091E80082FFE0
:107300002BC2FADEC82F26DF2ADF809102018F5FB1
:1073100080930201C53481F48CE393E79093AD012F
:107320008093AC0107B600FCFDCFF999FECF81E157
:1073300080935700E89503C0C43521F4DDDE8DE06D
:10734000F2DEE1C1CC34D9F3C035C9F3C43721F43E
:1073500084E4E9DE80E0F4CFC13611F489E5F0CFB2
:10736000C13491F4C9DEC82FC7DE2C2F30E0322F94
:107370002227330F90E0880F991F822B932B092E21
:10738000000CAA0BBB0B93C1C03711F483E5D8CF17
:10739000C33549F4C2EAD1E08991C5DE21E0C93A9A
:1073A000D207D1F7B0C1C63521F481E3BCDE80E35A
:1073B000C7CFC33731F487E8B6DE85E9B4DE8EE1A6
:1073C000BFCFC536B9F4E0E0F0E083E095E080930C
:1073D0005700E89507B600FCFDCF90935700E8955D
:1073E00007B600FCFDCFE058FF4FE11540E7F4077A
:1073F00071F7A5CFC23719F4E1E0F0E00EC0C63452
:1074000019F4E0E0F0E009C0CE3419F4E3E0F0E074
:1074100004C0C13539F4E2E0F0E089E08093570020
:1074200084918ECFC23631F489E57DDE80E07BDE4B
:1074300080E886CFC23419F0C73609F0D0C0109268
:10744000AD011092AC0158DE082F56DED82F54DE65
:10745000182F8BEB810F823010F08FE371CF8D2FBF
:1074600090E0902B10926F00C73609F042C021E1E6
:1074700020935700E895EC01B12C01E0209709F426
:10748000AAC0C090AE01D090AF01E090B001F090E2
:10749000B1011634B9F4EB2DF0E0EC29FD2984910B
:1074A00042DEBB2069F052E0C50ED11CE11CF11C8C
:1074B000C092AE01D092AF01E092B001F092B10162
:1074C000B02615C0D701C601B695A79597958795A3
:1074D00017D529DE82E0C80ED11CE11CF11CC09238
:1074E000AE01D092AF01E092B001F092B1012197CC
:1074F000C5CF8090AE019090AF01A090B001B09048
:10750000B101163441F423E0F40120935700E895CB
:1075100007B600FCFDCFE12CF12CEC0101E0209737
:1075200009F44DC0163439F5FF2009F14090AE0141
:107530005090AF016090B0017090B101DDDD2E2D53
:1075400030E0A901582BF2010A0100935700E89599
:107550001124F2E04F0E511C611C711C4092AE01CF
:107560005092AF016092B0017092B10102C0C4DDCF
:10757000E82EF02622C0C0DD682F8091AE019091E8
:10758000AF01A091B001B091B101B695A7959795C3
:107590008795BED48091AE019091AF01A091B001CA
:1075A000B091B1010296A11DB11D8093AE019093DF
:1075B000AF01A093B001B093B1012197B0CF1634C1
:1075C00041F485E0F40180935700E89507B600FC8C
:1075D000FDCF8DE0A8DD82E080936F0094C0C334BE
:1075E00071F4C091AE01D091AF0186DD90E021E051
:1075F000FE010C0120935700E8951124A0CEC3365C
:1076000001F5C090AE01D090AF01E090B001F090D4
:10761000B10172DDF601E16090E021E00C01209300
:107620005700E8951124F2E0CF0ED11CE11CF11CAB
:10763000C092AE01D092AF01E092B001F092B101E0
:107640007ECECD3661F4E091AE01F091AF0185E0E0
:1076500080935700E89507B600FCFDCF70CEC23589
:1076600051F4E091AE01F091AF01C591D4918D2F0D
:107670005ADD8C2F65CEC43419F53EDD682F80911C
:10768000AE019091AF01A091B001B091B101B6955A
:10769000A795979587953CD48091AE019091AF01C5
:1076A000A091B001B091B1010296A11DB11D8093CE
:1076B000AE019093AF01A093B001B093B1013FCE62
:1076C000C436F1F4C090AE01D090AF01E090B001AB
:1076D000F090B101D701C601B695A795979587950A
:1076E0000FD421DD22E0C20ED11CE11CF11CC0929E
:1076F000AE01D092AF01E092B001F092B10103C0AF
:10770000CB3109F0AACE83E08093E9009091E800A4
:107710008091E8008E778093E80095FD11C08091FC
:10772000E80080FD04C08EB38111F9CF15C08091AF
:10773000E8008E778093E80003C08EB3882361F061
:107740008091E80080FFF9CF84E08093E900809188
:10775000E8008B778093E800DF91CF911F910F9124
:10776000FF90EF90DF90CF90BF90AF909F908F9061
:107770007F906F905F904F900895CF938091000815
:10778000909101081092010810920008C4B714BE2D
:107790000FB6F894A895809160008861809360008E
:1077A000109260000FBE45D0D5DCE0E0F0E085919E
:1077B00094910196D9F0C230C9F03E9A46988198CA
:1077C000809A899A88988FE19EE40197F1F700C02A
:1077D0000000799B0AC08FE39CE90197F1F700C094
:1077E0000000799B02C0469ADBDC469AE8DC78947C
:1077F0001092AD011092AC013F9A479A8091AC0172
:107800009091AD018033954720F4A9DC63DD61D30D
:10781000F5CF8FE99FE00197F1F700C0000080915C
:10782000E00081608093E000BBDC80E090E0CF91DD
:10783000089584E08093BC0080E18093B8000895AF
:10784000EFE9FFE03197F1F700C0000094EA909370
:10785000BC009091BC0097FFFCCF9091B90098308C
:1078600091F58E7F8093BB0084E88093BC0080916B
:10787000BC0087FFFCCF8091B900883121F54150D1
:10788000FB0180E094E8442381F081918093BB0068
:107890009093BC008091BC0087FFFCCF8091B90021
:1078A000883289F480E04150EECF81110CC0808194
:1078B0008093BB0084E88093BC008091BC0087FF6C
:1078C000FCCF8091B90084E98093BC000895292FF2
:1078D00030E02230310559F02330310569F0213094
:1078E000310531F582E190E020E931E025C08EE3F9
:1078F00090E022E531E020C0882359F0813071F01A
:10790000823089F08330A1F48EE090E02EE031E007
:1079100013C084E090E02EE431E00EC084E190E0FA
:1079200028E331E009C088E190E02EE131E004C0B5
:1079300080E090E020E030E0FA0131832083089578
:107940008093E900EBEEF0E0808181608083EDEED2
:10795000F0E010826093EC0040838091EE00881F7D
:107960008827881F08958091B40187FF0FC08091F8
:10797000E80082FD04C08EB38111F9CF10C0809160
:10798000E8008B770AC08EB3882349F08091E80025
:1079900080FFF9CF8091E8008E778093E80008950A
:1079A0000F931F93CF93DF9341D048D0C8EDD0E021
:1079B00088818F77888388818068888388818F7D9C
:1079C000888319BC1EBA1092B20100EE10E0F801D3
:1079D00080818B7F808388818160888342E060E042
:1079E00080E0AEDFE1EEF0E080818E7F8083E2EE2A
:1079F000F0E0808181608083808188608083F801ED
:107A000080818E7F8083888180618883DF91CF91A0
:107A10001F910F910895E7EDF0E0808181608083F0
:107A20008AE482BF81E08093B301BACFE8EDF0E051
:107A300080818E7F80831092E20008951092DA0098
:107A40001092E10008951F920F920FB60F92112429
:107A50002F933F934F935F936F937F938F939F9356
:107A6000AF93BF93EF93FF938091DA0080FF1BC029
:107A70008091D80080FF17C08091DA008E7F8093BC
:107A8000DA008091D90080FF0BC080E189BD82E1DE
:107A900089BD09B400FEFDCF81E08EBB19D203C0C1
:107AA00019BC1EBA15D28091E10080FF17C08091E9
:107AB000E20080FF13C08091E2008E7F8093E2009D
:107AC0008091E20080618093E2008091D800806222
:107AD0008093D80019BC85E08EBBFAD18091E1007B
:107AE00084FF2CC08091E20084FF28C080E189BD22
:107AF00082E189BD09B400FEFDCF8091D8008F7D61
:107B00008093D8008091E1008F7E8093E100809186
:107B1000E2008F7E8093E2008091E200816080939A
:107B2000E2008091B201811106C08091E30087FDDF
:107B300002C081E001C084E08EBBCAD18091E10027
:107B400083FF21C08091E20083FF1DC08091E1008E
:107B5000877F8093E10082E08EBB1092B20180911A
:107B6000E1008E7F8093E1008091E2008E7F809320
:107B7000E2008091E20080618093E20042E060E0F8
:107B800080E0DEDEA5D1FF91EF91BF91AF919F9193
:107B90008F917F916F915F914F913F912F910F90B6
:107BA0000FBE0F901F9018952091BA013091BB0124
:107BB0002617370748F06115710539F42091E80060
:107BC0002E772093E80001C0B901FC0120E0611587
:107BD000710571F18EB38823D9F18530D9F1809187
:107BE000E80083FD33C08091E80082FD29C08091C8
:107BF000E80080FFECCF2091F3008091F20090E04C
:107C0000922B6115710551F08830910538F421915E
:107C10002093F100615071090196F3CF21E008979C
:107C200009F020E08091E8008E778093E800CFCFC4
:107C30002111D0CF05C08EB3882351F0853051F08B
:107C40008091E80082FFF7CF80E0089581E00895F9
:107C500082E0089583E008956115710529F420916B
:107C6000E8002B772093E800FC016115710531F1E4
:107C70008EB3882359F1853059F18091E80083FD56
:107C800023C08091E80082FFF0CF2091F300809123
:107C9000F20090E0922B892B31F08091F1008193DA
:107CA0006150710991F78091E8008B778093E8002B
:107CB000DCCF8EB3882351F0853051F08091E800FD
:107CC00080FFF7CF80E0089581E0089582E0089575
:107CD00083E008950F931F93CF93DF9300D0CDB728
:107CE000DEB7E4EBF1E08CEB91E02091F100219321
:107CF0008E179F07D1F7C0DA8091E80083FFD3C0C9
:107D00008091B4019091B501492F50E04A3051055E
:107D100008F0C9C0FA01EA5AF74CECC0823809F001
:107D2000C2C08091B80187708093E9008091EB0018
:107D30001092E9009091E800977F9093E80085FB0E
:107D4000882780F98093F1001092F10085C0282FD8
:107D50002D7F09F0A8C0823009F0A5C08091B6013E
:107D6000811127C08091B801877009F49CC080936D
:107D7000E9002091EB0020FF1CC0933021F480919A
:107D8000EB00806214C09091EB0090619093EB0047
:107D900021E030E0A90102C0440F551F8A95E2F7A7
:107DA0004093EA001092EA008091EB008860809393
:107DB000EB001092E9008091E800877F50C08111AC
:107DC00072C01091B6011F770FB7F8948091E80048
:107DD000877F8093E800C7DD8091E80080FFFCCFBB
:107DE0008091E3008078812B8093E300806880930A
:107DF000E300111102C082E001C083E08EBB0FBF1F
:107E000052C08058823008F04EC0AE014F5F5F4FC5
:107E10006091B8018091B6019091B70158DDBC0125
:107E2000892B09F440C09091E800977F9093E80077
:107E300089819A81B9DE8091E8008B778093E80090
:107E400032C0803881F58091E800877F8093E80018
:107E50008091B2018093F1008091E8008E77809349
:107E6000E80081DD20C081111EC08091B601909193
:107E7000B70199270297BCF48091E800877F80932F
:107E8000E8008091B6018093B2016DDD8091B2016E
:107E9000811106C08091E30087FD02C081E001C02E
:107EA00084E08EBBDDD98091E80083FF0AC0809119
:107EB000EB0080628093EB008091E800877F8093E5
:107EC000E8000F900F90DF91CF911F910F910895CF
:107ED0000895CF938EB3882359F0C091E900C770FD
:107EE0001092E9008091E80083FDF4DEC093E90080
:107EF000CF910895EE0FFF1F0590F491E02D0994A6
:107F0000F999FECF92BD81BDF89A992780B5089561
:107F1000262FF999FECF1FBA92BD81BD20BD0FB6A5
:107F2000F894FA9AF99A0FBE01960895F894FFCF43
:107F300077771803000000000000000000080E031F
:107F40006B00620069006F00300031000000180310
:107F50004B006500790062006F00610072006400F0
:107F600069006F002000000014034D006F006400E2
:107F700065006C0020003000310020000000040388
:107F8000090409023E0002010080320904000001D8
:107F90000202010005240010010424020405240645
:107FA0000001070582030800FF09040100020A001E
:107FB00000000705040210000107058302100001FC
:107FC0001201100102000008091200230100020141
:0C7FD00003014341544552494E4100005A
:040000030000700089
:00000001FF
