:107000005FC0000078C0000076C0000074C00000BF
:1070100072C0000070C000006EC000006CC00000B4
:107020006AC0000068C0000013C5000064C0000012
:1070300062C0000060C000005EC000005CC00000D4
:107040005AC00000F7C0000056C0000054C0000045
:1070500052C0000050C000004EC000004CC00000F4
:107060004AC0000048C0000046C0000044C0000004
:1070700042C0000040C000003EC000003CC0000014
:107080003AC0000038C0000036C0000034C0000024
:1070900032C0000030C000002EC000002CC0000034
:1070A0002AC0000028C0000026C00000973EB03E65
:1070B000573FB03E573FE83E0A3F573F2A3F3C3FCD
:1070C00011241FBECFEFDAE0DEBFCDBF11E0A0E09C
:1070D000B1E0E8E3FFE702C005900D92A63CB107DE
:1070E000D9F711E0A6ECB1E001C01D92A63DB107B1
:1070F000E1F754D31FC784CF84E08093E9008091E7
:10710000E80085FD0DC08091E8008B778093E80052
:107110008091E80082FDF3CF8EB38111F9CF02C0D8
:107120008091F100089593E09093E9009091E80038
:1071300095FF03C08093F10008959091E8009E7739
:107140009093E8009091E80090FDF4CF9EB39111E8
:10715000F9CF0895F89410926F0010928100109268
:1071600085001092840081E085BF15BE0C9400005C
:1071700008953E9A46988198809A899A8898000046
:10718000799B0AC08FE19EE40197F1F700C00000EF
:10719000799B02C03E98DEDF3E9808953F9A479A59
:1071A0004BD38FE99FE00197F1F700C0000044E066
:1071B0006EE071E080EB47D38FE99FE00197F1F734
:1071C00000C0000045E064E071E080EB3CD38FE953
:1071D0009FE00197F1F700C0000042E062E071E03B
:1071E00080EB31C384B7877F84BF88E10FB6F89402
:1071F00080936000109260000FBE90E880E00FB6B0
:10720000F89490936100809361000FBE81E085BF88
:1072100082E085BFE1E6F0E0908310821092890061
:107220009AEF9093880080936F0083E080938100B1
:10723000B5DFF6C31F920F920FB60F9211242F9352
:107240008F939F93EF93FF93109285001092840089
:10725000E0E0F0E085919491019649F08091C601BB
:107260009091C70101969093C7018093C601FF9149
:10727000EF919F918F912F910F900FBE0F901F90C4
:10728000189542E061EC82E060D342E161E883E07E
:107290005CD342E160E884E058C38091CE01982F2E
:1072A0009F77913239F59091CF01903291F09132E0
:1072B00009F5813AF9F48091E800877F8093E8002E
:1072C00067E070E083E191E074D48091E8008B770F
:1072D0000FC0813279F48091E800877F8093E800C5
:1072E00067E070E083E191E0C1D48091E8008E779F
:1072F0008093E80008956F927F928F929F92AF9251
:10730000BF92CF92DF92EF92FF920F931F93CF9392
:10731000DF9384E08093E9008091E80082FF2FC230
:10732000EBDEC82F45E064E071E080EB8CD2C53421
:1073300081F48CE49DE19093C7018093C60107B668
:1073400000FCFDCFF999FECF81E180935700E895CD
:1073500003C0C43521F4D0DE8DE0E5DEE2C1CC34DB
:10736000D9F3C035C9F3C43721F484E4DCDE80E00E
:10737000F4CFC13611F489E5F0CFC13491F4BCDE0D
:10738000C82FBADE90E0880F991F2C2F30E0322FE3
:107390002227330F822B932BAA2797FDA095BA2F74
:1073A00094C1C03711F483E5D8CFC33549F4CCEB91
:1073B000D1E01C2F195F8991B6DE1C13FCCFB1C13F
:1073C000C63521F481E3AFDE80E3C7CFC33731F4A4
:1073D00087E8A9DE85E9A7DE8EE1BFCFC536B9F41F
:1073E000E0E0F0E083E095E080935700E89507B691
:1073F00000FCFDCF90935700E89507B600FCFDCF49
:10740000E058FF4FE11520E7F20771F7A5CFC2372B
:1074100019F4E1E0F0E00EC0C63419F4E0E0F0E069
:1074200009C0CE3419F4E3E0F0E004C0C13539F40A
:10743000E2E0F0E089E08093570084918ECFC2367D
:1074400031F489E570DE80E06EDE80E886CFC234FC
:1074500019F0C73609F0D1C01092C7011092C601C9
:107460004BDE082F49DED82F47DE182F8BEB810F1C
:10747000823010F08FE371CF2D2F30E0302B10923F
:107480006F00C73609F043C081E180935700E8954B
:10749000E90100E0BB24B394209709F4AAC0C0908E
:1074A000C801D090C901E090CA01F090CB01163418
:1074B000B9F4E02FF0E0EC29FD29849134DE0023BB
:1074C00069F082E0C80ED11CE11CF11CC092C80119
:1074D000D092C901E092CA01F092CB010B2515C0F0
:1074E000D701C601B695A795979587950DD51BDE53
:1074F000E2E0CE0ED11CE11CF11CC092C801D0927A
:10750000C901E092CA01F092CB012197C5CF8090CA
:10751000C8019090C901A090CA01B090CB01163467
:1075200041F483E0F40180935700E89507B600FC2E
:10753000FDCFE901712C00E066246394209709F4E3
:107540004CC0163431F5002301F1C090C801D09031
:10755000C901E090CA01F090CB01CEDD272D30E0CB
:10756000382BF601090160925700E8951124F2E0EA
:10757000CF0ED11CE11CF11CC092C801D092C901F0
:10758000E092CA01F092CB0102C0B6DD782E06254A
:1075900022C0B2DD682F8091C8019091C901A091ED
:1075A000CA01B091CB01B695A79597958795B4D4AC
:1075B0008091C8019091C901A091CA01B091CB01FD
:1075C0000296A11DB11D8093C8019093C901A0939B
:1075D000CA01B093CB012197B1CF163441F485E0B5
:1075E000F40180935700E89507B600FCFDCF8DE0CD
:1075F0009ADD82E080936F0094C0C33471F4C0912F
:10760000C801D091C90178DD90E021E0FE010C01B4
:1076100020935700E89511249FCEC33601F5C09002
:10762000C801D090C901E090CA01F090CB0164DD9F
:10763000F601E16090E021E00C0120935700E8950D
:107640001124F2E0CF0ED11CE11CF11CC092C80144
:10765000D092C901E092CA01F092CB017DCECD3625
:1076600061F4E091C801F091C90185E08093570071
:10767000E89507B600FCFDCF6FCEC23551F4E0911E
:10768000C801F091C901C591D4918D2F4CDD8C2F8B
:1076900064CEC43419F530DD682F8091C801909113
:1076A000C901A091CA01B091CB01B695A795979554
:1076B000879532D48091C8019091C901A091CA01E7
:1076C000B091CB010296A11DB11D8093C80190938A
:1076D000C901A093CA01B093CB013ECEC436F1F4E8
:1076E000C090C801D090C901E090CA01F090CB01D0
:1076F000D701C601B695A7959795879505D413DD53
:1077000022E0C20ED11CE11CF11CC092C801D09233
:10771000C901E092CA01F092CB0103C0CB3109F05C
:10772000A9CE45E069E071E080EB8DD083E08093E5
:10773000E9009091E8008091E8008E778093E8005E
:1077400095FD11C08091E80080FD04C08EB38111C9
:10775000F9CF15C08091E8008E778093E80003C0D0
:107760008EB3882361F08091E80080FFF9CF84E038
:107770008093E9008091E8008B778093E800DF91A7
:10778000CF911F910F91FF90EF90DF90CF90BF901E
:10779000AF909F908F907F906F90089520910008F8
:1077A00030910108109201081092000884B714BEAD
:1077B00098E10FB6F89490936000109260000FBEAD
:1077C00080FF09C0E0E0F0E0459154914F3F5F4FEA
:1077D00011F0C0DC12C081FD10C083FF0DC080918C
:1077E0000001909101012817390731F0E0E0F0E045
:1077F00085919491019669F7BCDCF4DC7894109241
:10780000C7011092C60180911201882361F073DDD7
:1078100064D38091C6019091C70181349F4198F350
:1078200010921201F0CF8091E00081608093E0001F
:1078300091DC80E090E0089584E08093BC0080E1DA
:107840008093B800089594EA9093BC009091BC0096
:1078500097FFFCCF9091B9009830C9F58E7F809347
:10786000BB0084E88093BC008091BC0087FFFCCF04
:107870008091B900883159F550E0FB0184E841302E
:10788000510581F091919093BB008093BC00909141
:10789000BC0097FFFCCF9091B9004150510998323C
:1078A00071F315C080818093BB0084E88093BC0095
:1078B0008091BC0087FFFCCF8091B900803339F400
:1078C00084E98093BC0090E081E08927089584E9F1
:1078D0008093BC0091E0F8CF292F30E022303105B1
:1078E00059F02330310569F02130310531F582E15D
:1078F00090E02AEA31E025C08EE390E02CE631E00A
:1079000020C0882359F0813071F0823089F08330B3
:10791000A1F48EE090E02AE131E013C084E090E031
:1079200028E631E00EC082E290E024E431E009C0B4
:1079300088E190E02AE231E004C080E090E020E0BD
:1079400030E0FA013183208308958093E900EBEE63
:10795000F0E0808181608083EDEEF0E01082609342
:10796000EC0040838091EE00881F8827881F0895CF
:107970008091CE0187FF0FC08091E80082FD04C096
:107980008EB38111F9CF10C08091E8008B770AC0C7
:107990008EB3882349F08091E80080FFF9CF809171
:1079A000E8008E778093E80008950F931F93CF939C
:1079B000DF9341D048D0C8EDD0E088818F778883AD
:1079C00088818068888388818F7D888319BC1EBAEE
:1079D0001092CC0100EE10E0F80180818B7F808353
:1079E00088818160888342E060E080E0AEDFE1EE84
:1079F000F0E080818E7F8083E2EEF0E08081816024
:107A00008083808188608083F80180818E7F80837D
:107A1000888180618883DF91CF911F910F910895B4
:107A2000E7EDF0E08081816080838AE482BF81E0BD
:107A30008093CD01BACFE8EDF0E080818E7F808326
:107A40001092E20008951092DA001092E100089579
:107A50001F920F920FB60F9211242F933F934F93C3
:107A60005F936F937F938F939F93AF93BF93EF93A6
:107A7000FF938091DA0080FF1BC08091D80080FFC7
:107A800017C08091DA008E7F8093DA008091D90050
:107A900080FF0BC080E189BD82E189BD09B400FE91
:107AA000FDCF81E08EBB18D203C019BC1EBA14D220
:107AB0008091E10080FF17C08091E20080FF13C039
:107AC0008091E2008E7F8093E2008091E2008061ED
:107AD0008093E2008091D80080628093D80019BC26
:107AE00085E08EBBF9D18091E10084FF2CC08091AC
:107AF000E20084FF28C080E189BD82E189BD09B42C
:107B000000FEFDCF8091D8008F7D8093D8008091BA
:107B1000E1008F7E8093E1008091E2008F7E809370
:107B2000E2008091E20081608093E2008091CC01CC
:107B3000811106C08091E30087FD02C081E001C091
:107B400084E08EBBC9D18091E10083FF21C0809188
:107B5000E20083FF1DC08091E100877F8093E100F8
:107B600082E08EBB1092CC018091E1008E7F8093E9
:107B7000E1008091E2008E7F8093E2008091E2003C
:107B800080618093E20042E060E080E0DEDEA4D12C
:107B9000FF91EF91BF91AF919F918F917F916F91E5
:107BA0005F914F913F912F910F900FBE0F901F90BB
:107BB00018952091D4013091D5012617370748F048
:107BC0006115710539F42091E8002E772093E800C3
:107BD00001C0B90140E061157105A1F12EB3222366
:107BE00009F440C0253009F43FC02091E80023FD8E
:107BF00037C02091E80022FD2DC02091E80020FF31
:107C0000EACF4091F3002091F20030E0342BFC01E8
:107C1000CF016115710559F02830310540F481918B
:107C20008093F100615071092F5F3F4FF1CF41E028
:107C30002830310509F040E02091E8002E772093AC
:107C4000E800C9CF4111CACF05C08EB3882351F0D7
:107C5000853051F08091E80082FFF7CF80E00895F1
:107C600081E0089582E0089583E00895611571052B
:107C700029F42091E8002B772093E800FC0161159E
:107C8000710531F18EB3882359F1853059F1809116
:107C9000E80083FD23C08091E80082FFF0CF2091AF
:107CA000F3008091F20090E0922B892B31F08091CB
:107CB000F10081936150710991F78091E8008B7711
:107CC0008093E800DCCF8EB3882351F0853051F0EB
:107CD0008091E80080FFF7CF80E0089581E008956B
:107CE00082E0089583E008950F931F93CF93DF936D
:107CF00000D0CDB7DEB7EEECF1E088E08E0F9091CA
:107D0000F10091938E13FBCFC8DA8091E80083FFD6
:107D1000CEC08091CE019091CF01492F50E04A30E2
:107D2000510508F0C4C0FA01EA5AF74CE7C082389E
:107D300009F0BDC08091D20187708093E9008091E5
:107D4000EB001092E9009091E800977F9093E80093
:107D500085FB882780F98093F1001092F10085C09F
:107D6000282F2D7F09F0A3C0823009F0A0C0809198
:107D7000D001811127C08091D201877009F497C08A
:107D80008093E9002091EB0020FF1CC0933021F488
:107D90008091EB00806214C09091EB009061909311
:107DA000EB0021E030E0A90102C0440F551F8A9585
:107DB000E2F74093EA001092EA008091EB008860BD
:107DC0008093EB001092E9008091E800877F50C01B
:107DD00081116DC01091D0011F770FB7F894809179
:107DE000E800877F8093E800C3DD8091E80080FF92
:107DF000FCCF8091E3008078812B8093E300806842
:107E00008093E300111102C082E001C083E08EBBC9
:107E10000FBF4DC08058823008F049C0AE014F5F9F
:107E20005F4F6091D2018091D0019091D10154DDDA
:107E3000BC01892B09F43BC09091E800977F909397
:107E4000E80089819A81B5DE8091E8008B77809384
:107E5000E8002DC0803859F58091E800877F809335
:107E6000E8008091CC018093F1008091E8008E774A
:107E70008093E8007DDD1BC0811119C09091D00175
:107E80009230A8F48091E800877F8093E800909377
:107E9000CC016EDD8091CC01811106C08091E300A0
:107EA00087FD02C081E001C084E08EBBEAD98091E9
:107EB000E80083FF0AC08091EB0080628093EB00B2
:107EC0008091E800877F8093E8000F900F90DF910A
:107ED000CF911F910F9108950895CF938EB388236A
:107EE00059F0C091E900C7701092E9008091E80054
:107EF00083FDFADEC093E900CF910895EE0FFF1FD6
:107F00000590F491E02D0994F999FECF92BD81BDC1
:107F1000F89A992780B50895262FF999FECF1FBAB0
:107F200092BD81BD20BD0FB6F894FA9AF99A0FBEA2
:087F300001960895F894FFCFBB
:107F38007777060504030000FF0403FF0000030031
:107F4800000001000000000000080E036B00620042
:107F580069006F0030003100000018034B00650015
:107F6800790062006F0061007200640069006F00B0
:107F78002000000022034D006F00640065006C00C3
:107F880020003000310020002000200020002000C8
:107F980020002000200000000403090409023E001C
:107FA80002010080320904000001020201000524D8
:107FB80000100104240204052406000107058203B9
:107FC8000800FF09040100020A0000000705040276
:107FD80010000107058302100001120110010200C0
:107FE800000809120023010002010301434154451E
:067FF80052494E41000059
:040000030000700089
:00000001FF
