:107000005FC0000078C0000076C0000074C00000BF
:1070100072C0000070C000006EC000006CC00000B4
:107020006AC0000068C00000C7C4000064C000005F
:1070300062C0000060C000005EC000005CC00000D4
:107040005AC00000E2C0000056C0000054C000005A
:1070500052C0000050C000004EC000004CC00000F4
:107060004AC0000048C0000046C0000044C0000004
:1070700042C0000040C000003EC000003CC0000014
:107080003AC0000038C0000036C0000034C0000024
:1070900032C0000030C000002EC000002CC0000034
:1070A0002AC0000028C0000026C000004B3E643EFD
:1070B0000B3F643E0B3F9C3EBE3E0B3FDE3EF03E30
:1070C00011241FBECFEFDAE0DEBFCDBF11E0A0E09C
:1070D000B1E0E0EAFEE702C005900D92AE3BB107D9
:1070E000D9F711E0AEEBB1E001C01D92A43DB107AC
:1070F000E1F758D3D3C684CF84E08093E900809130
:10710000E80085FD0DC08091E8008B778093E80052
:107110008091E80082FDF3CF8EB38111F9CF02C0D8
:107120008091F100089593E09093E9009091E80038
:1071300095FF0AC08093F1005D9884E690E09093FB
:10714000C3018093C20108959091E8009E779093C7
:10715000E8009091E80090FDEDCF9EB39111F9CF3A
:107160000895F89410926F0010928100109285009B
:107170001092840081E085BF15BE5D985D9A289AC3
:107180000C94000008952091C8013091C9012F5F2F
:107190003F4F3093C9012093C801832F37FF02C0AE
:1071A0008EEF831B880F821710F45D9808955D9A07
:1071B000089584B7877F84BF88E10FB6F8948093E1
:1071C0006000109260000FBE90E880E00FB6F89467
:1071D00090936100809361000FBE81E085BF82E0E3
:1071E00085BF209A559AE1E6F0E0908310825D9881
:1071F0005D9A289A109289009AEF90938800809364
:107200006F0083E080938100BFC31F920F920FB67F
:107210000F9211242F938F939F93EF93FF931092CC
:107220008500109284008091C2019091C301009763
:1072300041F001979093C3018093C201892B09F417
:107240005D9A8091C0019091C101009741F0019732
:107250009093C1018093C001892B09F4289AE0E042
:10726000F0E085919491019649F08091BE01909152
:10727000BF0101969093BF018093BE01FF91EF91F2
:107280009F918F912F910F900FBE0F901F90189587
:1072900042E061EC82E00DD342E161E883E009D392
:1072A00042E160E884E005C38091CC01982F9F778C
:1072B000913239F59091CD01903291F0913209F5EA
:1072C000813AF9F48091E800877F8093E80067E0D5
:1072D00070E083E091E021D48091E8008B770FC0CB
:1072E000813279F48091E800877F8093E80067E03D
:1072F00070E083E091E06ED48091E8008E77809317
:10730000E80008956F927F928F929F92AF92BF9202
:10731000CF92DF92EF92FF920F931F93CF93DF9361
:1073200084E08093E9008091E80082FF2CC22898D5
:1073300084E690E09093C1018093C001DDDEC82F08
:10734000853481F48CE49DE19093BF018093BE016C
:1073500007B600FCFDCFF999FECF81E1809357007D
:10736000E89503C0843521F4C7DE8DE0DCDEE2C1A0
:107370008C34D9F38035C9F3843721F484E4D3DE27
:1073800080E0F4CF813611F489E5F0CF813491F4B7
:10739000B3DEC82FB1DE90E0880F991F2C2F30E0AC
:1073A000322F2227330F822B932BAA2797FDA095EC
:1073B000BA2F94C1803711F483E5D8CF833549F4CF
:1073C000C4EBD1E01C2F195F8991ADDE1C13FCCFFB
:1073D000B1C1863521F481E3A6DE80E3C7CF8337D0
:1073E00031F487E8A0DE85E99EDE8EE1BFCF8536E9
:1073F000B9F4E0E0F0E083E095E080935700E89591
:1074000007B600FCFDCF90935700E89507B600FC47
:10741000FDCFE058FF4FE11520E7F20771F7A5CF48
:10742000823719F4E1E0F0E00EC0863419F4E0E0B0
:10743000F0E009C08E3419F4E3E0F0E004C08135D7
:1074400039F4E2E0F0E089E08093570084918ECF38
:10745000823631F489E567DE80E065DE80E886CF3C
:10746000823419F0873609F0D1C01092BF01109212
:10747000BE0142DE082F40DED82F3EDE182F8BEBF8
:10748000810F823010F08FE371CF2D2F30E0302B41
:1074900010926F00C73609F043C081E18093570016
:1074A000E895E90100E0BB24B394209709F4AAC051
:1074B000C090C401D090C501E090C601F090C70112
:1074C0001634B9F4E02FF0E0EC29FD2984912BDE8D
:1074D000002369F082E0C80ED11CE11CF11CC092AF
:1074E000C401D092C501E092C601F092C7010B25FC
:1074F00015C0D701C601B695A79597958795B8D4BD
:1075000012DEE2E0CE0ED11CE11CF11CC092C401DF
:10751000D092C501E092C601F092C7012197C5CF74
:107520008090C4019090C501A090C601B090C701A1
:10753000163441F483E0F40180935700E89507B6D0
:1075400000FCFDCFE901712C00E0662463942097D4
:1075500009F44CC0163431F5002301F1C090C40188
:10756000D090C501E090C601F090C701C5DD272D80
:1075700030E0382BF601090160925700E89511249C
:10758000F2E0CF0ED11CE11CF11CC092C401D092DC
:10759000C501E092C601F092C70102C0ADDD782EB0
:1075A000062522C0A9DD682F8091C4019091C501F4
:1075B000A091C601B091C701B695A79597958795FB
:1075C0005FD48091C4019091C501A091C601B09192
:1075D000C7010296A11DB11D8093C4019093C501FE
:1075E000A093C601B093C7012197B1CF163441F4DF
:1075F00085E0F40180935700E89507B600FCFDCFC5
:107600008DE091DD82E080936F0094C0833471F44B
:10761000C091C401D091C5016FDD90E021E0FE0171
:107620000C0120935700E89511249FCE833601F575
:10763000C090C401D090C501E090C601F090C70190
:107640005BDDF601E16090E021E00C012093570042
:10765000E8951124F2E0CF0ED11CE11CF11CC09280
:10766000C401D092C501E092C601F092C7017DCE5F
:107670008D3661F4E091C401F091C50185E08093FD
:107680005700E89507B600FCFDCF6FCE823551F468
:10769000E091C401F091C501C591D4918D2F43DDD6
:1076A0008C2F64CE843419F527DD682F8091C401B6
:1076B0009091C501A091C601B091C701B695A7955B
:1076C00097958795DDD38091C4019091C501A091D4
:1076D000C601B091C7010296A11DB11D8093C401DE
:1076E0009093C501A093C601B093C7013ECE8436E6
:1076F000F1F4C090C401D090C501E090C601F090B3
:10770000C701D701C601B695A79597958795B0D3C0
:107710000ADD22E0C20ED11CE11CF11CC092C401A2
:10772000D092C501E092C601F092C70103C08B312F
:1077300009F0A9CE83E08093E9009091E800809160
:10774000E8008E778093E80095FD11C08091E800F5
:1077500080FD04C08EB38111F9CF15C08091E8007F
:107760008E778093E80003C08EB3882361F0809108
:10777000E80080FFF9CF84E08093E9008091E80081
:107780008B778093E800DF91CF911F910F91FF904D
:10779000EF90DF90CF90BF90AF909F908F907F90B1
:1077A0006F9008952091000830910108109201080F
:1077B0001092000884B714BE98E10FB6F894909325
:1077C0006000109260000FBE80FF09C0E0E0F0E0B2
:1077D000459154914F3F5F4F11F0C3DC11C081FDC3
:1077E0000FC083FF0DC08091000190910101281707
:1077F000390731F0E0E0F0E085919491019669F766
:10780000D8DC78941092BF011092BE0180910201E1
:10781000882369F077DD15D38091BE019091BF0177
:1078200081349F4110F010920201ADDCEFCF8091C6
:10783000E00081608093E00094DC80E090E00895B7
:10784000292F30E02230310559F02330310569F01D
:107850002130310531F582E190E022EA31E025C0A6
:107860008EE390E024E631E020C0882359F0813097
:1078700071F0823089F08330A1F486E190E02AE053
:1078800031E013C084E090E020E631E00EC082E2F7
:1078900090E02CE331E009C088E190E022E231E0A1
:1078A00004C080E090E020E030E0FA0131832083E2
:1078B00008958093E900EBEEF0E0808181608083A1
:1078C000EDEEF0E010826093EC0040838091EE00DA
:1078D000881F8827881F08958091CC0187FF0FC0DB
:1078E0008091E80082FD04C08EB38111F9CF10C0F1
:1078F0008091E8008B770AC08EB3882349F080918D
:10790000E80080FFF9CF8091E8008E778093E8004F
:1079100008950F931F93CF93DF9341D048D0C8EDC4
:10792000D0E088818F778883888180688883888188
:107930008F7D888319BC1EBA1092CA0100EE10E038
:10794000F80180818B7F808388818160888342E019
:1079500060E080E0AEDFE1EEF0E080818E7F80834A
:10796000E2EEF0E0808181608083808188608083A6
:10797000F80180818E7F8083888180618883DF9198
:10798000CF911F910F910895E7EDF0E08081816024
:1079900080838AE482BF81E08093CB01BACFE8ED97
:1079A000F0E080818E7F80831092E2000895109233
:1079B000DA001092E10008951F920F920FB60F9215
:1079C00011242F933F934F935F936F937F938F93E4
:1079D0009F93AF93BF93EF93FF938091DA0080FF63
:1079E0001BC08091D80080FF17C08091DA008E7F85
:1079F0008093DA008091D90080FF0BC080E189BDBF
:107A000082E189BD09B400FEFDCF81E08EBB18D2B2
:107A100003C019BC1EBA14D28091E10080FF17C0C8
:107A20008091E20080FF13C08091E2008E7F8093FE
:107A3000E2008091E20080618093E2008091D800B2
:107A400080628093D80019BC85E08EBBF9D180910B
:107A5000E10084FF2CC08091E20084FF28C080E117
:107A600089BD82E189BD09B400FEFDCF8091D800B7
:107A70008F7D8093D8008091E1008F7E8093E1001C
:107A80008091E2008F7E8093E2008091E20081602D
:107A90008093E2008091CA01811106C08091E300C9
:107AA00087FD02C081E001C084E08EBBC9D1809116
:107AB000E10083FF21C08091E20083FF1DC080911F
:107AC000E100877F8093E10082E08EBB1092CA01C3
:107AD0008091E1008E7F8093E1008091E2008E7FB3
:107AE0008093E2008091E20080618093E20042E0B6
:107AF00060E080E0DEDEA4D1FF91EF91BF91AF9115
:107B00009F918F917F916F915F914F913F912F91B5
:107B10000F900FBE0F901F9018952091D2013091B9
:107B2000D3012617370748F06115710539F4209104
:107B3000E8002E772093E80001C0B90140E061150C
:107B40007105A1F12EB3222309F440C0253009F4B8
:107B50003FC02091E80023FD37C02091E80022FDBE
:107B60002DC02091E80020FFEACF4091F300209142
:107B7000F20030E0342BFC01CF016115710559F0A2
:107B80002830310540F481918093F10061507109F2
:107B90002F5F3F4FF1CF41E02830310509F040E041
:107BA0002091E8002E772093E800C9CF4111CACF79
:107BB00005C08EB3882351F0853051F08091E800E4
:107BC00082FFF7CF80E0089581E0089582E0089574
:107BD00083E008956115710529F42091E8002B7761
:107BE0002093E800FC016115710531F18EB3882303
:107BF00059F1853059F18091E80083FD23C08091CF
:107C0000E80082FFF0CF2091F3008091F20090E035
:107C1000922B892B31F08091F10081936150710991
:107C200091F78091E8008B778093E800DCCF8EB3EA
:107C3000882351F0853051F08091E80080FFF7CF24
:107C400080E0089581E0089582E0089583E008953A
:107C50000F931F93CF93DF9300D0CDB7DEB7ECEC3B
:107C6000F1E088E08E0F9091F10091938E13FBCF9D
:107C70001BDB8091E80083FFCEC08091CC01909106
:107C8000CD01492F50E04A30510508F0C4C0FA0137
:107C9000EA5AF74CE7C0823809F0BDC08091D001A4
:107CA00087708093E9008091EB001092E900909139
:107CB000E800977F9093E80085FB882780F9809300
:107CC000F1001092F10085C0282F2D7F09F0A3C08C
:107CD000823009F0A0C08091CE01811127C080912F
:107CE000D001877009F497C08093E9002091EB00E0
:107CF00020FF1CC0933021F48091EB00806214C0FF
:107D00009091EB0090619093EB0021E030E0A901AD
:107D100002C0440F551F8A95E2F74093EA00109283
:107D2000EA008091EB0088608093EB001092E900FC
:107D30008091E800877F50C081116DC01091CE0105
:107D40001F770FB7F8948091E800877F8093E80051
:107D5000C3DD8091E80080FFFCCF8091E300807854
:107D6000812B8093E30080688093E300111102C0AF
:107D700082E001C083E08EBB0FBF4DC080588230CF
:107D800008F049C0AE014F5F5F4F6091D001809114
:107D9000CE019091CF0154DDBC01892B09F43BC089
:107DA0009091E800977F9093E80089819A81B5DEF1
:107DB0008091E8008B778093E8002DC0803859F5DA
:107DC0008091E800877F8093E8008091CA018093CA
:107DD000F1008091E8008E778093E8007DDD1BC084
:107DE000811119C09091CE019230A8F48091E800E1
:107DF000877F8093E8009093CA016EDD8091CA016D
:107E0000811106C08091E30087FD02C081E001C0BE
:107E100084E08EBB3DDA8091E80083FF0AC0809148
:107E2000EB0080628093EB008091E800877F809375
:107E3000E8000F900F90DF91CF911F910F9108955F
:107E40000895CF938EB3882359F0C091E900C7708D
:107E50001092E9008091E80083FDFADEC093E9000A
:107E6000CF910895EE0FFF1F0590F491E02D099436
:107E7000F999FECF92BD81BDF89A992780B50895F2
:107E8000262FF999FECF1FBA92BD81BD20BD0FB636
:107E9000F894FA9AF99A0FBE01960895F894FFCFD4
:107EA0007777010000000000000816034B00650012
:107EB000790062006F0061007200640069006F0069
:107EC000000018034B006500790062006F0061003C
:107ED0007200640069006F002000000022034D0062
:107EE0006F00640065006C0020003000310020004D
:107EF00020002000200020002000200020000000A2
:107F00000403090409023E00020100803209040052
:107F100000010202010005240010010424020405EE
:107F200024060001070582030800FF09040100027E
:107F30000A00000007050402100001070583021073
:107F400000011201100102000008091200230100C3
:0E7F5000020103014341544552494E410000D5
:040000030000700089
:00000001FF
